{
  "_format": "hh-sol-artifact-1",
  "contractName": "BrickSafeProperty",
  "sourceName": "contracts/BrickSafeProperty.sol",
  "abi": [
    {
      "inputs": [
        {
          "internalType": "address",
          "name": "_usdt",
          "type": "address"
        },
        {
          "internalType": "uint256",
          "name": "_price",
          "type": "uint256"
        },
        {
          "internalType": "string",
          "name": "_propertyURI",
          "type": "string"
        },
        {
          "internalType": "address",
          "name": "initialOwner",
          "type": "address"
        },
        {
          "internalType": "address",
          "name": "_seller",
          "type": "address"
        }
      ],
      "stateMutability": "nonpayable",
      "type": "constructor"
    },
    {
      "inputs": [
        {
          "internalType": "address",
          "name": "sender",
          "type": "address"
        },
        {
          "internalType": "uint256",
          "name": "tokenId",
          "type": "uint256"
        },
        {
          "internalType": "address",
          "name": "owner",
          "type": "address"
        }
      ],
      "name": "ERC721IncorrectOwner",
      "type": "error"
    },
    {
      "inputs": [
        {
          "internalType": "address",
          "name": "operator",
          "type": "address"
        },
        {
          "internalType": "uint256",
          "name": "tokenId",
          "type": "uint256"
        }
      ],
      "name": "ERC721InsufficientApproval",
      "type": "error"
    },
    {
      "inputs": [
        {
          "internalType": "address",
          "name": "approver",
          "type": "address"
        }
      ],
      "name": "ERC721InvalidApprover",
      "type": "error"
    },
    {
      "inputs": [
        {
          "internalType": "address",
          "name": "operator",
          "type": "address"
        }
      ],
      "name": "ERC721InvalidOperator",
      "type": "error"
    },
    {
      "inputs": [
        {
          "internalType": "address",
          "name": "owner",
          "type": "address"
        }
      ],
      "name": "ERC721InvalidOwner",
      "type": "error"
    },
    {
      "inputs": [
        {
          "internalType": "address",
          "name": "receiver",
          "type": "address"
        }
      ],
      "name": "ERC721InvalidReceiver",
      "type": "error"
    },
    {
      "inputs": [
        {
          "internalType": "address",
          "name": "sender",
          "type": "address"
        }
      ],
      "name": "ERC721InvalidSender",
      "type": "error"
    },
    {
      "inputs": [
        {
          "internalType": "uint256",
          "name": "tokenId",
          "type": "uint256"
        }
      ],
      "name": "ERC721NonexistentToken",
      "type": "error"
    },
    {
      "inputs": [
        {
          "internalType": "address",
          "name": "owner",
          "type": "address"
        }
      ],
      "name": "OwnableInvalidOwner",
      "type": "error"
    },
    {
      "inputs": [
        {
          "internalType": "address",
          "name": "account",
          "type": "address"
        }
      ],
      "name": "OwnableUnauthorizedAccount",
      "type": "error"
    },
    {
      "inputs": [],
      "name": "ReentrancyGuardReentrantCall",
      "type": "error"
    },
    {
      "inputs": [
        {
          "internalType": "address",
          "name": "token",
          "type": "address"
        }
      ],
      "name": "SafeERC20FailedOperation",
      "type": "error"
    },
    {
      "inputs": [
        {
          "internalType": "uint256",
          "name": "value",
          "type": "uint256"
        },
        {
          "internalType": "uint256",
          "name": "length",
          "type": "uint256"
        }
      ],
      "name": "StringsInsufficientHexLength",
      "type": "error"
    },
    {
      "anonymous": false,
      "inputs": [
        {
          "indexed": true,
          "internalType": "address",
          "name": "owner",
          "type": "address"
        },
        {
          "indexed": true,
          "internalType": "address",
          "name": "approved",
          "type": "address"
        },
        {
          "indexed": true,
          "internalType": "uint256",
          "name": "tokenId",
          "type": "uint256"
        }
      ],
      "name": "Approval",
      "type": "event"
    },
    {
      "anonymous": false,
      "inputs": [
        {
          "indexed": true,
          "internalType": "address",
          "name": "owner",
          "type": "address"
        },
        {
          "indexed": true,
          "internalType": "address",
          "name": "operator",
          "type": "address"
        },
        {
          "indexed": false,
          "internalType": "bool",
          "name": "approved",
          "type": "bool"
        }
      ],
      "name": "ApprovalForAll",
      "type": "event"
    },
    {
      "anonymous": false,
      "inputs": [
        {
          "indexed": false,
          "internalType": "uint256",
          "name": "_fromTokenId",
          "type": "uint256"
        },
        {
          "indexed": false,
          "internalType": "uint256",
          "name": "_toTokenId",
          "type": "uint256"
        }
      ],
      "name": "BatchMetadataUpdate",
      "type": "event"
    },
    {
      "anonymous": false,
      "inputs": [
        {
          "indexed": true,
          "internalType": "address",
          "name": "investor",
          "type": "address"
        },
        {
          "indexed": false,
          "internalType": "uint256",
          "name": "amount",
          "type": "uint256"
        },
        {
          "indexed": false,
          "internalType": "uint256",
          "name": "newRaised",
          "type": "uint256"
        }
      ],
      "name": "Contributed",
      "type": "event"
    },
    {
      "anonymous": false,
      "inputs": [
        {
          "indexed": true,
          "internalType": "uint256",
          "name": "tokenId",
          "type": "uint256"
        },
        {
          "indexed": false,
          "internalType": "string",
          "name": "name",
          "type": "string"
        }
      ],
      "name": "DisplayNameSet",
      "type": "event"
    },
    {
      "anonymous": false,
      "inputs": [
        {
          "indexed": false,
          "internalType": "uint256",
          "name": "totalRaised",
          "type": "uint256"
        },
        {
          "indexed": false,
          "internalType": "address",
          "name": "sellerPaid",
          "type": "address"
        }
      ],
      "name": "Finalized",
      "type": "event"
    },
    {
      "anonymous": false,
      "inputs": [
        {
          "indexed": true,
          "internalType": "address",
          "name": "from",
          "type": "address"
        },
        {
          "indexed": false,
          "internalType": "uint256",
          "name": "amount",
          "type": "uint256"
        }
      ],
      "name": "IncomeDeposited",
      "type": "event"
    },
    {
      "anonymous": false,
      "inputs": [
        {
          "indexed": false,
          "internalType": "uint256",
          "name": "amount",
          "type": "uint256"
        }
      ],
      "name": "IncomeDistributed",
      "type": "event"
    },
    {
      "anonymous": false,
      "inputs": [
        {
          "indexed": false,
          "internalType": "uint256",
          "name": "_tokenId",
          "type": "uint256"
        }
      ],
      "name": "MetadataUpdate",
      "type": "event"
    },
    {
      "anonymous": false,
      "inputs": [
        {
          "indexed": false,
          "internalType": "string",
          "name": "did",
          "type": "string"
        },
        {
          "indexed": false,
          "internalType": "address",
          "name": "dataNft",
          "type": "address"
        }
      ],
      "name": "OceanLinked",
      "type": "event"
    },
    {
      "anonymous": false,
      "inputs": [
        {
          "indexed": true,
          "internalType": "address",
          "name": "previousOwner",
          "type": "address"
        },
        {
          "indexed": true,
          "internalType": "address",
          "name": "newOwner",
          "type": "address"
        }
      ],
      "name": "OwnershipTransferred",
      "type": "event"
    },
    {
      "anonymous": false,
      "inputs": [
        {
          "indexed": true,
          "internalType": "uint256",
          "name": "tokenId",
          "type": "uint256"
        },
        {
          "indexed": true,
          "internalType": "address",
          "name": "investor",
          "type": "address"
        },
        {
          "indexed": false,
          "internalType": "uint256",
          "name": "shareBps",
          "type": "uint256"
        },
        {
          "indexed": false,
          "internalType": "string",
          "name": "tokenURI",
          "type": "string"
        }
      ],
      "name": "ShareMinted",
      "type": "event"
    },
    {
      "anonymous": false,
      "inputs": [
        {
          "indexed": true,
          "internalType": "address",
          "name": "from",
          "type": "address"
        },
        {
          "indexed": true,
          "internalType": "address",
          "name": "to",
          "type": "address"
        },
        {
          "indexed": true,
          "internalType": "uint256",
          "name": "tokenId",
          "type": "uint256"
        }
      ],
      "name": "Transfer",
      "type": "event"
    },
    {
      "inputs": [
        {
          "internalType": "address",
          "name": "to",
          "type": "address"
        },
        {
          "internalType": "uint256",
          "name": "tokenId",
          "type": "uint256"
        }
      ],
      "name": "approve",
      "outputs": [],
      "stateMutability": "nonpayable",
      "type": "function"
    },
    {
      "inputs": [
        {
          "internalType": "address",
          "name": "owner",
          "type": "address"
        }
      ],
      "name": "balanceOf",
      "outputs": [
        {
          "internalType": "uint256",
          "name": "",
          "type": "uint256"
        }
      ],
      "stateMutability": "view",
      "type": "function"
    },
    {
      "inputs": [
        {
          "internalType": "uint256",
          "name": "amount",
          "type": "uint256"
        }
      ],
      "name": "contribute",
      "outputs": [],
      "stateMutability": "nonpayable",
      "type": "function"
    },
    {
      "inputs": [
        {
          "internalType": "address",
          "name": "",
          "type": "address"
        }
      ],
      "name": "contributed",
      "outputs": [
        {
          "internalType": "uint256",
          "name": "",
          "type": "uint256"
        }
      ],
      "stateMutability": "view",
      "type": "function"
    },
    {
      "inputs": [
        {
          "internalType": "uint256",
          "name": "amount",
          "type": "uint256"
        }
      ],
      "name": "depositIncome",
      "outputs": [],
      "stateMutability": "nonpayable",
      "type": "function"
    },
    {
      "inputs": [],
      "name": "distributeIncome",
      "outputs": [],
      "stateMutability": "nonpayable",
      "type": "function"
    },
    {
      "inputs": [],
      "name": "finalize",
      "outputs": [],
      "stateMutability": "nonpayable",
      "type": "function"
    },
    {
      "inputs": [],
      "name": "finalized",
      "outputs": [
        {
          "internalType": "bool",
          "name": "",
          "type": "bool"
        }
      ],
      "stateMutability": "view",
      "type": "function"
    },
    {
      "inputs": [
        {
          "internalType": "uint256",
          "name": "tokenId",
          "type": "uint256"
        }
      ],
      "name": "getApproved",
      "outputs": [
        {
          "internalType": "address",
          "name": "",
          "type": "address"
        }
      ],
      "stateMutability": "view",
      "type": "function"
    },
    {
      "inputs": [],
      "name": "getContributors",
      "outputs": [
        {
          "internalType": "address[]",
          "name": "",
          "type": "address[]"
        }
      ],
      "stateMutability": "view",
      "type": "function"
    },
    {
      "inputs": [
        {
          "internalType": "address",
          "name": "owner",
          "type": "address"
        },
        {
          "internalType": "address",
          "name": "operator",
          "type": "address"
        }
      ],
      "name": "isApprovedForAll",
      "outputs": [
        {
          "internalType": "bool",
          "name": "",
          "type": "bool"
        }
      ],
      "stateMutability": "view",
      "type": "function"
    },
    {
      "inputs": [
        {
          "internalType": "string",
          "name": "_oceanDid",
          "type": "string"
        },
        {
          "internalType": "address",
          "name": "_oceanDataNft",
          "type": "address"
        }
      ],
      "name": "linkOceanAsset",
      "outputs": [],
      "stateMutability": "nonpayable",
      "type": "function"
    },
    {
      "inputs": [],
      "name": "name",
      "outputs": [
        {
          "internalType": "string",
          "name": "",
          "type": "string"
        }
      ],
      "stateMutability": "view",
      "type": "function"
    },
    {
      "inputs": [],
      "name": "oceanDataNft",
      "outputs": [
        {
          "internalType": "address",
          "name": "",
          "type": "address"
        }
      ],
      "stateMutability": "view",
      "type": "function"
    },
    {
      "inputs": [],
      "name": "oceanDid",
      "outputs": [
        {
          "internalType": "string",
          "name": "",
          "type": "string"
        }
      ],
      "stateMutability": "view",
      "type": "function"
    },
    {
      "inputs": [],
      "name": "owner",
      "outputs": [
        {
          "internalType": "address",
          "name": "",
          "type": "address"
        }
      ],
      "stateMutability": "view",
      "type": "function"
    },
    {
      "inputs": [
        {
          "internalType": "uint256",
          "name": "tokenId",
          "type": "uint256"
        }
      ],
      "name": "ownerOf",
      "outputs": [
        {
          "internalType": "address",
          "name": "",
          "type": "address"
        }
      ],
      "stateMutability": "view",
      "type": "function"
    },
    {
      "inputs": [],
      "name": "pendingIncome",
      "outputs": [
        {
          "internalType": "uint256",
          "name": "",
          "type": "uint256"
        }
      ],
      "stateMutability": "view",
      "type": "function"
    },
    {
      "inputs": [],
      "name": "price",
      "outputs": [
        {
          "internalType": "uint256",
          "name": "",
          "type": "uint256"
        }
      ],
      "stateMutability": "view",
      "type": "function"
    },
    {
      "inputs": [],
      "name": "propertyURI",
      "outputs": [
        {
          "internalType": "string",
          "name": "",
          "type": "string"
        }
      ],
      "stateMutability": "view",
      "type": "function"
    },
    {
      "inputs": [],
      "name": "raised",
      "outputs": [
        {
          "internalType": "uint256",
          "name": "",
          "type": "uint256"
        }
      ],
      "stateMutability": "view",
      "type": "function"
    },
    {
      "inputs": [],
      "name": "renounceOwnership",
      "outputs": [],
      "stateMutability": "nonpayable",
      "type": "function"
    },
    {
      "inputs": [
        {
          "internalType": "address",
          "name": "from",
          "type": "address"
        },
        {
          "internalType": "address",
          "name": "to",
          "type": "address"
        },
        {
          "internalType": "uint256",
          "name": "tokenId",
          "type": "uint256"
        }
      ],
      "name": "safeTransferFrom",
      "outputs": [],
      "stateMutability": "nonpayable",
      "type": "function"
    },
    {
      "inputs": [
        {
          "internalType": "address",
          "name": "from",
          "type": "address"
        },
        {
          "internalType": "address",
          "name": "to",
          "type": "address"
        },
        {
          "internalType": "uint256",
          "name": "tokenId",
          "type": "uint256"
        },
        {
          "internalType": "bytes",
          "name": "data",
          "type": "bytes"
        }
      ],
      "name": "safeTransferFrom",
      "outputs": [],
      "stateMutability": "nonpayable",
      "type": "function"
    },
    {
      "inputs": [],
      "name": "seller",
      "outputs": [
        {
          "internalType": "address",
          "name": "",
          "type": "address"
        }
      ],
      "stateMutability": "view",
      "type": "function"
    },
    {
      "inputs": [
        {
          "internalType": "address",
          "name": "operator",
          "type": "address"
        },
        {
          "internalType": "bool",
          "name": "approved",
          "type": "bool"
        }
      ],
      "name": "setApprovalForAll",
      "outputs": [],
      "stateMutability": "nonpayable",
      "type": "function"
    },
    {
      "inputs": [
        {
          "internalType": "uint256",
          "name": "tokenId",
          "type": "uint256"
        },
        {
          "internalType": "string",
          "name": "name",
          "type": "string"
        }
      ],
      "name": "setDisplayName",
      "outputs": [],
      "stateMutability": "nonpayable",
      "type": "function"
    },
    {
      "inputs": [
        {
          "internalType": "uint256",
          "name": "",
          "type": "uint256"
        }
      ],
      "name": "shareTokens",
      "outputs": [
        {
          "internalType": "uint256",
          "name": "",
          "type": "uint256"
        }
      ],
      "stateMutability": "view",
      "type": "function"
    },
    {
      "inputs": [
        {
          "internalType": "bytes4",
          "name": "interfaceId",
          "type": "bytes4"
        }
      ],
      "name": "supportsInterface",
      "outputs": [
        {
          "internalType": "bool",
          "name": "",
          "type": "bool"
        }
      ],
      "stateMutability": "view",
      "type": "function"
    },
    {
      "inputs": [],
      "name": "symbol",
      "outputs": [
        {
          "internalType": "string",
          "name": "",
          "type": "string"
        }
      ],
      "stateMutability": "view",
      "type": "function"
    },
    {
      "inputs": [
        {
          "internalType": "uint256",
          "name": "",
          "type": "uint256"
        }
      ],
      "name": "tokenDisplayName",
      "outputs": [
        {
          "internalType": "string",
          "name": "",
          "type": "string"
        }
      ],
      "stateMutability": "view",
      "type": "function"
    },
    {
      "inputs": [
        {
          "internalType": "uint256",
          "name": "",
          "type": "uint256"
        }
      ],
      "name": "tokenShareBps",
      "outputs": [
        {
          "internalType": "uint256",
          "name": "",
          "type": "uint256"
        }
      ],
      "stateMutability": "view",
      "type": "function"
    },
    {
      "inputs": [
        {
          "internalType": "uint256",
          "name": "tokenId",
          "type": "uint256"
        }
      ],
      "name": "tokenURI",
      "outputs": [
        {
          "internalType": "string",
          "name": "",
          "type": "string"
        }
      ],
      "stateMutability": "view",
      "type": "function"
    },
    {
      "inputs": [],
      "name": "totalShareTokens",
      "outputs": [
        {
          "internalType": "uint256",
          "name": "",
          "type": "uint256"
        }
      ],
      "stateMutability": "view",
      "type": "function"
    },
    {
      "inputs": [
        {
          "internalType": "address",
          "name": "from",
          "type": "address"
        },
        {
          "internalType": "address",
          "name": "to",
          "type": "address"
        },
        {
          "internalType": "uint256",
          "name": "tokenId",
          "type": "uint256"
        }
      ],
      "name": "transferFrom",
      "outputs": [],
      "stateMutability": "nonpayable",
      "type": "function"
    },
    {
      "inputs": [
        {
          "internalType": "address",
          "name": "newOwner",
          "type": "address"
        }
      ],
      "name": "transferOwnership",
      "outputs": [],
      "stateMutability": "nonpayable",
      "type": "function"
    },
    {
      "inputs": [],
      "name": "usdt",
      "outputs": [
        {
          "internalType": "contract IERC20",
          "name": "",
          "type": "address"
        }
      ],
      "stateMutability": "view",
      "type": "function"
    }
  ],
  "bytecode": "0x604060e08152346200065f57620033fd803803806200001e8162000684565b928339810160a0828203126200065f576200003982620006aa565b6020838101518585015190946001600160401b03939290918481116200065f57820194601f918183880112156200065f578651868111620003e557601f1997620000898286018a16840162000684565b938285528383830101116200065f57829060005b8381106200064a57505060009184010152620000ca6080620000c260608701620006aa565b9501620006aa565b97620000d562000664565b94600f86526e427269636b5361666520536861726560881b83870152620000fb62000664565b966003978881526242535360e81b8582015287518a8111620003e5576000546001998a82811c921680156200063f575b88831014620003c457818a849311620005e9575b5087908a8311600114620005855760009262000579575b5050600019828c1b1c191690891b176000555b8051908a8211620003e5578854908982811c921680156200056e575b87831014620003c457818984931162000518575b508690898311600114620004b557600092620004a9575b5050600019828b1b1c191690881b1787555b6001600160a01b0391821680156200049157600780546001600160a01b0319811683179091558d5193928392909183167f8be0079c531659141344cd1fd0a4f28419497f9722a3daafe3b4186f6b6457e0600080a38860085588601155169182156200045a575082156200042a578a1615620003fb5760805260a0528151958611620003e5576009548481811c91168015620003da575b82821014620003c45783811162000378575b50809286116001146200030a575084955090849291600095620002fe575b50501b92600019911b1c1916176009555b60c05251612d3d9081620006c082396080518181816103e3015281816105a101528181610e0c0152818161107f01526121bc015260a05181818161056001528181610bfb01528181610fa60152611ec3015260c0518181816113d401526121940152f35b01519350388062000289565b93929585908116600960005285600020956000905b898383106200035d575050501062000342575b50505050811b016009556200029a565b01519060f884600019921b161c191690553880808062000332565b8587015189559097019694850194889350908101906200031f565b6009600052816000208480890160051c820192848a10620003ba575b0160051c019085905b828110620003ad5750506200026b565b600081550185906200039d565b9250819262000394565b634e487b7160e01b600052602260045260246000fd5b90607f169062000259565b634e487b7160e01b600052604160045260246000fd5b8a5162461bcd60e51b8152600481018490526008602482015267073656c6c65723d360c41b6044820152606490fd5b8b5162461bcd60e51b815260048101859052600960248201526805072696365203e20360bc1b6044820152606490fd5b62461bcd60e51b81526004810185905260126024820152711554d115081859191c881c995c5d5a5c995960721b6044820152606490fd5b8c51631e4fbdf760e01b815260006004820152602490fd5b015190503880620001b0565b908d8b94169184600052886000209260005b8a828210620005015750508411620004e8575b505050811b018755620001c2565b0151600019838d1b60f8161c19169055388080620004da565b8385015186558e97909501949384019301620004c7565b90915089600052866000208980850160051c82019289861062000564575b918c91869594930160051c01915b8281106200055457505062000199565b600081558594508c910162000544565b9250819262000536565b91607f169162000185565b01519050388062000156565b908e8c94169160008052896000209260005b8b828210620005d25750508411620005b9575b505050811b0160005562000169565b0151600019838e1b60f8161c19169055388080620005aa565b8385015186558f9790950194938401930162000597565b90915060008052876000208a80850160051c8201928a861062000635575b918d91869594930160051c01915b828110620006255750506200013f565b600081558594508d910162000615565b9250819262000607565b91607f16916200012b565b8181018301518682018401528492016200009d565b600080fd5b60408051919082016001600160401b03811183821017620003e557604052565b6040519190601f01601f191682016001600160401b03811183821017620003e557604052565b51906001600160a01b03821682036200065f5756fe6080604081815260048036101561001557600080fd5b600092833560e01c90816301ffc9a7146114e65750806306fdde031461143e578063081812fc1461140357806308551a53146113bf578063095ea7b3146112e3578063152624c4146112ba57806315a2be4a146112915780631ceb89f1146110c657806323b872dd146110ae5780632f48ab7d1461106a57806342842e0e1461104157806343312e04146110095780634bb278f314610f785780634d07a46214610f595780636352211e14610f2857806370a0823114610efb578063715018a614610e9e5780637c6dcd5314610dd15780638da5cb5b14610da857806395d89b4114610d00578063995c5e9d14610cc85780639babbbd114610c1e578063a035b1fe14610be3578063a22cb46514610b46578063abc872f6146108f6578063acffd600146108cf578063af157c191461080a578063b3f05b97146107e6578063b88d4fde1461075d578063b9f4c1a91461073e578063c1cbbca714610525578063c87b56dd146104ee578063ce8fcab114610394578063e6092484146102bd578063e985e9c51461026f578063f0ea4bfc1461024c5763f2fde38b146101ba57600080fd5b34610248576020366003190112610248576101d36115b4565b906101dc61181c565b6001600160a01b03918216928315610232575050600754826bffffffffffffffffffffffff60a01b821617600755167f8be0079c531659141344cd1fd0a4f28419497f9722a3daafe3b4186f6b6457e08380a380f35b51631e4fbdf760e01b8152908101849052602490fd5b8280fd5b50503461026b578160031936011261026b57602090600a549051908152f35b5080fd5b50503461026b578060031936011261026b5760ff8160209361028f6115b4565b6102976115cf565b6001600160a01b0391821683526005875283832091168252855220549151911615158152f35b50503461026b578160031936011261026b57805190826013546102df816115e5565b8085529160019180831690811561036c5750600114610321575b50505061030b8261031d940383611651565b5191829160208352602083019061158f565b0390f35b945060138552600080516020612ce88339815191525b8286106103545750505061030b82602061031d95820101946102f9565b80546020878701810191909152909501948101610337565b61031d97508693506020925061030b94915060ff191682840152151560051b820101946102f9565b5091903461026b578160031936011261026b576103b560ff600b5416612c6d565b6103c86103c133611848565b1515612ca9565b6103d0611e8b565b600c549182156104b3579182600c5582907f0000000000000000000000000000000000000000000000000000000000000000915b601054811015610480576104178161177c565b90549060031b1c808652600f6020528486205480156104755780840290848204036104625761045d9291610452612710610458930491611b8a565b86612265565b611eae565b610404565b634e487b7160e01b875260118852602487fd5b505061045d90611eae565b847fde10a6ba2a7febfd272ec63ec9c56214f930c353074d9a925fdc20e976c9ce4a6020848751908152a1600160085580f35b815162461bcd60e51b815260208186015260156024820152746e6f7468696e6720746f206469737472696275746560581b6044820152606490fd5b509134610522576020366003190112610522575061050f61031d9235611bc5565b905191829160208352602083019061158f565b80fd5b5034610248576020908160031936011261073a57803592610544611e8b565b839161055560ff600b541615611d6b565b841561070c57600a547f000000000000000000000000000000000000000000000000000000000000000095818703918783116106f95787146106c85781106106c0575b506105c58330337f0000000000000000000000000000000000000000000000000000000000000000611dce565b338652600e84528186205415610648575b507ffa35a310d7113dddce1c275da946348e9aaebf9050b00b372033c4d84b0bd6eb90338652600e845280862061060e848254611dab565b905561061c83600a54611dab565b809481600a5582519485528401523392a21461063b575b600160085580f35b610643611ebd565b610633565b600d5490600160401b8210156106ad57509061068b8260017ffa35a310d7113dddce1c275da946348e9aaebf9050b00b372033c4d84b0bd6eb9401600d556117c9565b81546001600160a01b0360039290921b91821b19163390911b179055906105d6565b634e487b7160e01b875260419052602486fd5b925038610598565b835162461bcd60e51b8152808401879052600b60248201526a10d85c081c995858da195960aa1b6044820152606490fd5b634e487b7160e01b895260118452602489fd5b83606492519162461bcd60e51b8352820152600a6024820152690416d6f756e74203e20360b41b6044820152fd5b8380fd5b50503461026b578160031936011261026b576020906010549051908152f35b509034610248576080366003190112610248576107786115b4565b6107806115cf565b846064359467ffffffffffffffff861161026b573660238701121561026b57850135946107b86107af87611800565b95519586611651565b858552366024878301011161026b57856107e396602460209301838801378501015260443591611a35565b80f35b50503461026b578160031936011261026b5760209060ff600b541690519015158152f35b828434610522578060031936011261052257908051918290600d549182855260208095018093600d84527fd7b6990105719101dabeb77144f2a3385c8033acd3af97e9423a695e81ad1eb590845b8181106108b2575050508161086e910382611651565b83519485948186019282875251809352850193925b82811061089257505050500390f35b83516001600160a01b031685528695509381019392810192600101610883565b82546001600160a01b031684529288019260019283019201610858565b5034610248576020366003190112610248576020928291358152600f845220549051908152f35b50903461024857806003193601126102485767ffffffffffffffff908235828111610b42576109289036908501611719565b9290936109336115cf565b9161094260ff600b5416612c6d565b61094e6103c133611848565b610956611e8b565b8415610b13578411610b00575061096e6013546115e5565b601f8111610aaf575b508285601f8211600114610a3f578691610a34575b508360011b906000198560031b1c1916176013555b601480546001600160a01b0319166001600160a01b03929092169182179055845b6010548110156109ed57806104586109dc6109e89361177c565b90549060031b1c612335565b6109c2565b50610a237f37267e37fd2d5bcf6a824771b8fa3299d9a3dac6ac7f42a0d1649353383e906c948351948486958652850191612c4c565b9060208301520390a1600160085580f35b90508401353861098c565b60138752600080516020612ce8833981519152915084601f198116885b818110610a94575010610a7a575b5050600183811b016013556109a1565b850135600019600386901b60f8161c191690553880610a6a565b88840135855560019094019360209384019388935001610a5c565b60138652600080516020612ce8833981519152601f850160051c81019160208610610af6575b601f0160051c01905b818110610aeb5750610977565b868155600101610ade565b9091508190610ad5565b634e487b7160e01b865260419052602485fd5b835162461bcd60e51b8152602081840152600960248201526864696420656d70747960b81b6044820152606490fd5b8480fd5b509034610248578060031936011261024857610b606115b4565b9060243591821515809303610b42576001600160a01b0316928315610bce5750338452600560205280842083855260205280842060ff1981541660ff8416179055519081527f17307eab39ab6107e8899845ad3d59bd9653f200f220920489ca2b5937696c3160203392a380f35b836024925191630b61174360e31b8352820152fd5b50503461026b578160031936011261026b57602090517f00000000000000000000000000000000000000000000000000000000000000008152f35b50503461026b578160031936011261026b5780519082600954610c40816115e5565b8085529160019180831690811561036c5750600114610c6b5750505061030b8261031d940383611651565b9450600985527f6e1540171b6c0c960b71a7020d9f60077f6af931a8bbf590da0223dacf75c7af5b828610610cb05750505061030b82602061031d95820101946102f9565b80546020878701810191909152909501948101610c93565b50503461026b57602036600319011261026b5760209181906001600160a01b03610cf06115b4565b168152600e845220549051908152f35b50503461026b578160031936011261026b57805190826001805491610d24836115e5565b8086529282811690811561036c5750600114610d4c5750505061030b8261031d940383611651565b94508085527fb10e2d527612073b26eecdfd717e6a320cf44b4afac2b0732d9fcbe2b7fa0cf65b828610610d905750505061030b82602061031d95820101946102f9565b80546020878701810191909152909501948101610d73565b50503461026b578160031936011261026b5760075490516001600160a01b039091168152602090f35b50903461024857602036600319011261024857813591610def611e8b565b610dfd60ff600b5416612c6d565b8215610e715750610e308230337f0000000000000000000000000000000000000000000000000000000000000000611dce565b610e3c82600c54611dab565b600c55519081527f4fa51550fb53e0a87cd7fcc4517c58be50a2336950c1e47ec93b37af6ae7411b60203392a2600160085580f35b6020606492519162461bcd60e51b835282015260086024820152670616d6f756e743d360c41b6044820152fd5b8334610522578060031936011261052257610eb761181c565b600780546001600160a01b0319811690915581906001600160a01b03167f8be0079c531659141344cd1fd0a4f28419497f9722a3daafe3b4186f6b6457e08280a380f35b50503461026b57602036600319011261026b57602090610f21610f1c6115b4565b611848565b9051908152f35b5091346105225760203660031901126105225750610f4860209235611b8a565b90516001600160a01b039091168152f35b50503461026b578160031936011261026b57602090600c549051908152f35b509034610248578260031936011261024857610f92611e8b565b610fa160ff600b541615611d6b565b600a547f000000000000000000000000000000000000000000000000000000000000000003610fd35782610633611ebd565b906020606492519162461bcd60e51b8352820152601060248201526f139bdd08199d5b1b1e48199d5b99195960821b6044820152fd5b5034610248576020366003190112610248573591601054831015610522575061103360209261177c565b91905490519160031b1c8152f35b50503461026b576107e39061105536611747565b919251926110628461161f565b858452611a35565b50503461026b578160031936011261026b57517f00000000000000000000000000000000000000000000000000000000000000006001600160a01b03168152602090f35b8334610522576107e36110c036611747565b91611881565b50903461024857806003193601126102485781359167ffffffffffffffff60243581811161128d576110fb9036908401611719565b93909161110786611b8a565b336001600160a01b0390911603611258578587526020936012855282882091861161124557506111418561113b83546115e5565b83612a0a565b86601f86116001146111bc5791859493917f909d2250d41fd3bd1b2dce219534c841c5309ac240c0780b506a3542ab79c593966111ab948a916111b1575b508660011b906000198860031b1c19161790555b61119c87612335565b51938385948552840191612c4c565b0390a280f35b90508301353861117f565b81885284882090601f198716895b81811061122e57509187969593917f909d2250d41fd3bd1b2dce219534c841c5309ac240c0780b506a3542ab79c593986111ab969410611214575b5050600186811b019055611193565b840135600019600389901b60f8161c191690553880611205565b91928760018192868a0135815501940192016111ca565b634e487b7160e01b885260419052602487fd5b815162461bcd60e51b8152602081860152600f60248201526e2737ba103a37b5b2b71037bbb732b960891b6044820152606490fd5b8580fd5b50503461026b578160031936011261026b5760145490516001600160a01b039091168152602090f35b5034610248576020366003190112610248578161031d9361050f92358152601260205220611673565b5090346102485780600319360112610248576112fd6115b4565b9160243561130a81611b8a565b331515806113ac575b80611383575b61136d576001600160a01b039485169482918691167f8c5be1e5ebec7d5bd14f71427d1e84f3dd0314c0f7b2291e5b200ac8c7c3b9258880a48452602052822080546001600160a01b031916909117905580f35b835163a9fbf51f60e01b81523381850152602490fd5b506001600160a01b03811686526005602090815284872033885290528386205460ff1615611319565b506001600160a01b038116331415611313565b50503461026b578160031936011261026b57517f00000000000000000000000000000000000000000000000000000000000000006001600160a01b03168152602090f35b50346102485760203660031901126102485791826020933561142481611b8a565b50825283528190205490516001600160a01b039091168152f35b50503461026b578160031936011261026b5780519082805461145f816115e5565b8085529160019180831690811561036c575060011461148a5750505061030b8261031d940383611651565b80809650527f290decd9548b62a8d60345a988386fc84ba6bc95484008f6362f93160ef3e5635b8286106114ce5750505061030b82602061031d95820101946102f9565b805460208787018101919091529095019481016114b1565b92505034610248576020366003190112610248573563ffffffff60e01b81168091036102485760209250632483248360e11b8114908115611529575b5015158152f35b6380ac58cd60e01b81149150811561155b575b811561154a575b5038611522565b6301ffc9a760e01b14905038611543565b635b5e139f60e01b8114915061153c565b60005b83811061157f5750506000910152565b818101518382015260200161156f565b906020916115a88151809281855285808601910161156c565b601f01601f1916010190565b600435906001600160a01b03821682036115ca57565b600080fd5b602435906001600160a01b03821682036115ca57565b90600182811c92168015611615575b60208310146115ff57565b634e487b7160e01b600052602260045260246000fd5b91607f16916115f4565b6020810190811067ffffffffffffffff82111761163b57604052565b634e487b7160e01b600052604160045260246000fd5b90601f8019910116810190811067ffffffffffffffff82111761163b57604052565b9060405191826000825492611687846115e5565b9081845260019485811690816000146116f657506001146116b3575b50506116b192500383611651565b565b9093915060005260209081600020936000915b8183106116de5750506116b1935082010138806116a3565b855488840185015294850194879450918301916116c6565b9150506116b194506020925060ff191682840152151560051b82010138806116a3565b9181601f840112156115ca5782359167ffffffffffffffff83116115ca57602083818601950101116115ca57565b60609060031901126115ca576001600160a01b039060043582811681036115ca579160243590811681036115ca579060443590565b6010548110156117b35760106000527f1b6847dc741a1b0cd08d278845f9d819d87b734759afb55fe2de5cb82a9ae6720190600090565b634e487b7160e01b600052603260045260246000fd5b600d548110156117b357600d6000527fd7b6990105719101dabeb77144f2a3385c8033acd3af97e9423a695e81ad1eb50190600090565b67ffffffffffffffff811161163b57601f01601f191660200190565b6007546001600160a01b0316330361183057565b60405163118cdaa760e01b8152336004820152602490fd5b6001600160a01b0316801561186857600052600360205260406000205490565b6040516322718ad960e21b815260006004820152602490fd5b6001600160a01b039182169290918315611a1c5760009282845260206002815283604096848888205416809733151580611985575b507fddf252ad1be2c89b69c2b068fc378daa952ba7f163c4a11628f55a4df523b3ef9060028315159687611952575b858352600381528c832080546001019055868352528a812080546001600160a01b0319168517905580a4611944575b16928383036119235750505050565b6064945051926364283d7b60e01b8452600484015260248301526044820152fd5b61194d83612335565b611914565b600087815260046020526040902080546001600160a01b0319169055848352600381528c832080546000190190556118e5565b9150919250806119db575b1561199f5790868692386118b6565b8786886119bc576024915190637e27328960e01b82526004820152fd5b905163177e802f60e01b81523360048201526024810191909152604490fd5b503387148015611a00575b806119905750858152600483523385898320541614611990565b5086815260058352878120338252835260ff88822054166119e6565b604051633250574960e11b815260006004820152602490fd5b929092611a43838583611881565b833b611a50575b50505050565b604051630a85bd0160e11b8082523360048301526001600160a01b0392831660248301526044820194909452608060648201529493169260209290918590611a9c90608483019061158f565b039483816000978189895af1869181611b46575b50611b11575050503d600014611b08573d611aca81611800565b90611ad86040519283611651565b81528093823d92013e5b82519283611b0357604051633250574960e11b815260048101849052602490fd5b019050fd5b60609250611ae2565b919450915063ffffffff60e01b1603611b2e575038808080611a4a565b60249060405190633250574960e11b82526004820152fd5b9091508481813d8311611b83575b611b5e8183611651565b81010312611b7f57516001600160e01b031981168103611b7f579038611ab0565b8680fd5b503d611b54565b6000818152600260205260409020546001600160a01b0316908115611bad575090565b60249060405190637e27328960e01b82526004820152fd5b611bce81611b8a565b506000526006602052611be46040600020611673565b6000604051611bf28161161f565b5290565b90611c0082611800565b611c0d6040519182611651565b8281528092611c1e601f1991611800565b0190602036910137565b806000917a184f03e93ff9f4daa797ed6e38ed64bf6a1f01000000000000000080821015611d5d575b506d04ee2d6d415b85acef810000000080831015611d4e575b50662386f26fc1000080831015611d3f575b506305f5e10080831015611d30575b5061271080831015611d21575b506064821015611d11575b600a80921015611d07575b600190816021611cbf828701611bf6565b95860101905b611cd1575b5050505090565b600019019083906f181899199a1a9b1b9c1cb0b131b232b360811b8282061a835304918215611d0257919082611cc5565b611cca565b9160010191611cae565b9190606460029104910191611ca3565b60049193920491019138611c98565b60089193920491019138611c8b565b60109193920491019138611c7c565b60209193920491019138611c6a565b604093508104915038611c51565b15611d7257565b60405162461bcd60e51b8152602060048201526011602482015270105b1c9958591e48199a5b985b1a5e9959607a1b6044820152606490fd5b91908201809211611db857565b634e487b7160e01b600052601160045260246000fd5b6040516323b872dd60e01b60208201526001600160a01b03928316602482015292909116604483015260648083019390935291815260a081019181831067ffffffffffffffff84111761163b576116b1926040525b906000602091828151910182855af115611e7f576000513d611e7657506001600160a01b0381163b155b611e545750565b604051635274afe760e01b81526001600160a01b039091166004820152602490fd5b60011415611e4d565b6040513d6000823e3d90fd5b600260085414611e9c576002600855565b604051633ee5aeb560e01b8152600490fd5b6000198114611db85760010190565b600090817f00000000000000000000000000000000000000000000000000000000000000008015935b600d5481101561214957611ef9816117c9565b60018060a09493941b03809354600392831b1c1680600052602090600e82526040918260002054801561213a5761271080820291820403611db8578a6121245787611f4691048099611dab565b9780156120f357601193845494611f5c86611eae565b905583156120dc57846000528360029889855282600020541686811515928392836120aa575b816000528a8852856000209c60019d8e815401905583600052885285600020826bffffffffffffffffffffffff60a01b8254161790557fddf252ad1be2c89b69c2b068fc378daa952ba7f163c4a11628f55a4df523b3ef600080a461209c575b61208557917f13def16ba50741d28ea5220eae6269b37523f1bcc493c19e2312f846bfdc7ada91612042869485600052600f845282816000205561202586612335565b61202e86611bc5565b90808051958695865285015283019061158f565b0390a36010938454600160401b81101561163b5761208095612067928201905561177c565b81939154911b91821b91600019901b1916179055611eae565b611ee6565b516339e3563760e11b815260006004820152602490fd5b6120a586612335565b611fe2565b600083815260046020526040812080546001600160a01b03191690558181528b89528690208054600019019055611f82565b51633250574960e11b815260006004820152602490fd5b835162461bcd60e51b815260048101839052600a602482015269073686172654270733d360b41b6044820152606490fd5b634e487b7160e01b600052601260045260246000fd5b50505050506120809150611eae565b5050909150612710908181108061225a575b6121fb575b5050600160ff19600b541617600b557f7b1990f6546bb8c366883c6dbadda7cbb52114d60570d3f7ab226e6a59f35bf260407f00000000000000000000000000000000000000000000000000000000000000006121e0600a54827f0000000000000000000000000000000000000000000000000000000000000000612265565b600a5482519081526001600160a01b039091166020820152a1565b8103908111611db857601054156117b357612253907f1b6847dc741a1b0cd08d278845f9d819d87b734759afb55fe2de5cb82a9ae672549081600052600f60205261224c6040600020918254611dab565b9055612335565b3880612160565b50601054151561215b565b60405163a9059cbb60e01b60208201526001600160a01b039290921660248301526044808301939093529181526116b1916122a1606483611651565b611e23565b600954600092916122b6826115e5565b9160019081811690811561232257506001146122d157505050565b909192935060096000527f6e1540171b6c0c960b71a7020d9f60077f6af931a8bbf590da0223dacf75c7af906000915b84831061230f575050500190565b8181602092548587015201920191612301565b60ff191683525050811515909102019150565b9061233f82611b8a565b91600090808252602091600f8352604090818120549561235e84611c28565b908351906123a56031838981019570427269636b53616665205368617265202360781b8752612395815180928d868601910161156c565b8101036011810185520183611651565b858452601287526123b7858520611673565b906001600160a01b03906123d6906123d0908316612b56565b9a611c28565b998651908982019b7f5b7b2274726169745f74797065223a225368617265427073222c2276616c75658d5261111d60f11b8984015261241e815180928d60428701910161156c565b82017f7d2c7b2274726169745f74797065223a224f776e6572222c2276616c7565223a6042820152601160f91b6062820152612463825180938d60638501910161156c565b019261248660658361227d60f01b96876063820152036045810185520183611651565b819b8151612983575b50505060135461249e816115e5565b612879575b5060145416806127e8575b505083519788878082018381945192839101916124ca9261156c565b8101888101605d60f81b905203986001998a810182526021016124ed9082611651565b8551938493683d913730b6b2911d1160b91b8a860152519081602986016125139261156c565b7f222c226465736372697074696f6e223a22436f2d6f776e6572736869702073686029918501918201527f61726520666f722061207265616c2d6573746174652070726f70657274792e226049820152600b60fa1b6069820152681134b6b0b3b2911d1160b91b606a82015261258b906073016122a6565b7111161132bc3a32b93730b62fbab936111d1160711b81526125af906012016122a6565b906e11161130ba3a3934b13aba32b9911d60891b8252519182600f83016125d59261156c565b01600f8101607d60f81b905203600f19810182526010016125f69082611651565b825167ffffffffffffffff9160608201838111838210176127d45785528482527f4142434445464748494a4b4c4d4e4f505152535455565758595a616263646566878301527f6768696a6b6c6d6e6f707172737475767778797a303132333435363738392b2f8583015261266a9190612a5e565b916126bb603d855180957f646174613a6170706c69636174696f6e2f6a736f6e3b6261736536342c0000008a8301526126ab815180928c868601910161156c565b810103601d810186520184611651565b848152600686528381209280519283116127c0576126e3836126dd86546115e5565b86612a0a565b8691601f84116001146127415797987ff8e1a15aba9398e019f0b49df1a4fde98ee17ae345cb5f6b5e2c27f5033e8ce79892849283612736575b50501b916000199060031b1c19161790555b51908152a1565b01519250388061271d565b90989291601f198316858352888320925b8181106127ab575099837ff8e1a15aba9398e019f0b49df1a4fde98ee17ae345cb5f6b5e2c27f5033e8ce79a9b10612792575b505050811b01905561272f565b015160001960f88460031b161c19169055388080612785565b8b830151845592850192918901918901612752565b634e487b7160e01b82526041600452602482fd5b634e487b7160e01b85526041600452602485fd5b6128719192996127f9604992612b56565b93875194826128128c889551928184928801910161156c565b83017f2c7b2274726169745f74797065223a224f6365616e446174614e4654222c22768c8201526630b63ab2911d1160c91b8a82015261285c8c835193849160478501910161156c565b01906047820152036029810184520182611651565b9638806124ae565b90998651918161289284935180928d808701910161156c565b8201907f2c7b2274726169745f74797065223a224f6365616e444944222c2276616c75658b83015262111d1160e91b8983015287916128d0826115e5565b9160019081811690811561295d575060011461290a575b5050506129039181856002935203601d19810184520182611651565b98386124a3565b60138a52919392509088908c600080516020612ce88339815191525b86841061294557505050509060436129039360029301019181936128e7565b8054858501604301528795509201918d908201612926565b6002955060439392506129039694915060ff1916838301528015150201019181936128e7565b8a939c5091604891612a01936129a38b519687945192839186019061156c565b82017f2c7b2274726169745f74797065223a22446973706c61794e616d65222c2276618d82015265363ab2911d1160d11b8b8201526129ec8d835193849160468501910161156c565b01856046820152036028810184520182611651565b9838808061248f565b90601f8111612a1857505050565b600091825260208220906020601f850160051c83019410612a54575b601f0160051c01915b828110612a4957505050565b818155600101612a3d565b9092508290612a34565b805115612b41578051600291828201809211611db8576003918290046001600160fe1b0381168103611db857612a97908495941b611bf6565b936020850193829183518401906020820192835194600085525b838110612af0575050505052510680600114612add57600214612ad2575090565b603d90600019015390565b50603d9081600019820153600119015390565b87600491999293949901918251600190603f9082828260121c16880101518453828282600c1c16880101518385015382828260061c1688010151888501531685010151898201530197929190612ab1565b5050604051612b4f8161161f565b6000815290565b80604051916060830183811067ffffffffffffffff82111761163b57604052602a8352602080840160403682378451156117b357603090538351906001918210156117b35790607860218601536029915b818311612bd857505050612bb9575090565b6044906040519063e22e27eb60e01b8252600482015260146024820152fd5b909192600f81166010811015612c37578651851015612c37576f181899199a1a9b1b9c1cb0b131b232b360811b901a86850183015360041c928015612c2257600019019190612ba7565b60246000634e487b7160e01b81526011600452fd5b60246000634e487b7160e01b81526032600452fd5b908060209392818452848401376000828201840152601f01601f1916010190565b15612c7457565b60405162461bcd60e51b815260206004820152600d60248201526c139bdd08199a5b985b1a5e9959609a1b6044820152606490fd5b15612cb057565b60405162461bcd60e51b815260206004820152600f60248201526e2737ba1039b430b932b437b63232b960891b6044820152606490fdfe66de8ffda797e3de9c05e8fc57b3bf0ec28a930d40b0d285d93c06501cf6a090a2646970667358221220becd24f7d9920be5a08bfe644e1837c48dc8cb0590b5541629e0db758f6dd21564736f6c63430008140033",
  "linkReferences": {},
  "deployedLinkReferences": {}
}